{
  "_format": "hh-sol-artifact-1",
  "contractName": "CapybaraToken",
  "sourceName": "contracts/CapybaraToken.sol",
  "abi": [
    {
      "inputs": [],
      "stateMutability": "nonpayable",
      "type": "constructor"
    },
    {
      "anonymous": false,
      "inputs": [
        {
          "indexed": true,
          "internalType": "address",
          "name": "owner",
          "type": "address"
        },
        {
          "indexed": true,
          "internalType": "address",
          "name": "approved",
          "type": "address"
        },
        {
          "indexed": true,
          "internalType": "uint256",
          "name": "tokenId",
          "type": "uint256"
        }
      ],
      "name": "Approval",
      "type": "event"
    },
    {
      "anonymous": false,
      "inputs": [
        {
          "indexed": true,
          "internalType": "address",
          "name": "owner",
          "type": "address"
        },
        {
          "indexed": true,
          "internalType": "address",
          "name": "operator",
          "type": "address"
        },
        {
          "indexed": false,
          "internalType": "bool",
          "name": "approved",
          "type": "bool"
        }
      ],
      "name": "ApprovalForAll",
      "type": "event"
    },
    {
      "anonymous": false,
      "inputs": [
        {
          "indexed": false,
          "internalType": "uint256",
          "name": "_fromTokenId",
          "type": "uint256"
        },
        {
          "indexed": false,
          "internalType": "uint256",
          "name": "_toTokenId",
          "type": "uint256"
        }
      ],
      "name": "BatchMetadataUpdate",
      "type": "event"
    },
    {
      "anonymous": false,
      "inputs": [
        {
          "indexed": false,
          "internalType": "uint256",
          "name": "_tokenId",
          "type": "uint256"
        }
      ],
      "name": "MetadataUpdate",
      "type": "event"
    },
    {
      "anonymous": false,
      "inputs": [
        {
          "indexed": true,
          "internalType": "address",
          "name": "previousOwner",
          "type": "address"
        },
        {
          "indexed": true,
          "internalType": "address",
          "name": "newOwner",
          "type": "address"
        }
      ],
      "name": "OwnershipTransferred",
      "type": "event"
    },
    {
      "anonymous": false,
      "inputs": [
        {
          "indexed": true,
          "internalType": "address",
          "name": "from",
          "type": "address"
        },
        {
          "indexed": true,
          "internalType": "address",
          "name": "to",
          "type": "address"
        },
        {
          "indexed": true,
          "internalType": "uint256",
          "name": "tokenId",
          "type": "uint256"
        }
      ],
      "name": "Transfer",
      "type": "event"
    },
    {
      "inputs": [
        {
          "internalType": "address",
          "name": "to",
          "type": "address"
        },
        {
          "internalType": "uint256",
          "name": "tokenId",
          "type": "uint256"
        }
      ],
      "name": "approve",
      "outputs": [],
      "stateMutability": "nonpayable",
      "type": "function"
    },
    {
      "inputs": [
        {
          "internalType": "address",
          "name": "owner",
          "type": "address"
        }
      ],
      "name": "balanceOf",
      "outputs": [
        {
          "internalType": "uint256",
          "name": "",
          "type": "uint256"
        }
      ],
      "stateMutability": "view",
      "type": "function"
    },
    {
      "inputs": [
        {
          "internalType": "uint256",
          "name": "tokenId",
          "type": "uint256"
        }
      ],
      "name": "getApproved",
      "outputs": [
        {
          "internalType": "address",
          "name": "",
          "type": "address"
        }
      ],
      "stateMutability": "view",
      "type": "function"
    },
    {
      "inputs": [
        {
          "internalType": "address",
          "name": "owner",
          "type": "address"
        },
        {
          "internalType": "address",
          "name": "operator",
          "type": "address"
        }
      ],
      "name": "isApprovedForAll",
      "outputs": [
        {
          "internalType": "bool",
          "name": "",
          "type": "bool"
        }
      ],
      "stateMutability": "view",
      "type": "function"
    },
    {
      "inputs": [
        {
          "internalType": "address",
          "name": "to",
          "type": "address"
        },
        {
          "internalType": "uint256",
          "name": "tokenId",
          "type": "uint256"
        },
        {
          "internalType": "string",
          "name": "tokenURI",
          "type": "string"
        }
      ],
      "name": "mintCowboyCapybara",
      "outputs": [],
      "stateMutability": "nonpayable",
      "type": "function"
    },
    {
      "inputs": [
        {
          "internalType": "address",
          "name": "to",
          "type": "address"
        },
        {
          "internalType": "uint256",
          "name": "tokenId",
          "type": "uint256"
        },
        {
          "internalType": "string",
          "name": "tokenURI",
          "type": "string"
        }
      ],
      "name": "mintMexicanCapybara",
      "outputs": [],
      "stateMutability": "nonpayable",
      "type": "function"
    },
    {
      "inputs": [],
      "name": "name",
      "outputs": [
        {
          "internalType": "string",
          "name": "",
          "type": "string"
        }
      ],
      "stateMutability": "view",
      "type": "function"
    },
    {
      "inputs": [],
      "name": "owner",
      "outputs": [
        {
          "internalType": "address",
          "name": "",
          "type": "address"
        }
      ],
      "stateMutability": "view",
      "type": "function"
    },
    {
      "inputs": [
        {
          "internalType": "uint256",
          "name": "tokenId",
          "type": "uint256"
        }
      ],
      "name": "ownerOf",
      "outputs": [
        {
          "internalType": "address",
          "name": "",
          "type": "address"
        }
      ],
      "stateMutability": "view",
      "type": "function"
    },
    {
      "inputs": [],
      "name": "renounceOwnership",
      "outputs": [],
      "stateMutability": "nonpayable",
      "type": "function"
    },
    {
      "inputs": [
        {
          "internalType": "address",
          "name": "from",
          "type": "address"
        },
        {
          "internalType": "address",
          "name": "to",
          "type": "address"
        },
        {
          "internalType": "uint256",
          "name": "tokenId",
          "type": "uint256"
        }
      ],
      "name": "safeTransferFrom",
      "outputs": [],
      "stateMutability": "nonpayable",
      "type": "function"
    },
    {
      "inputs": [
        {
          "internalType": "address",
          "name": "from",
          "type": "address"
        },
        {
          "internalType": "address",
          "name": "to",
          "type": "address"
        },
        {
          "internalType": "uint256",
          "name": "tokenId",
          "type": "uint256"
        },
        {
          "internalType": "bytes",
          "name": "data",
          "type": "bytes"
        }
      ],
      "name": "safeTransferFrom",
      "outputs": [],
      "stateMutability": "nonpayable",
      "type": "function"
    },
    {
      "inputs": [
        {
          "internalType": "address",
          "name": "operator",
          "type": "address"
        },
        {
          "internalType": "bool",
          "name": "approved",
          "type": "bool"
        }
      ],
      "name": "setApprovalForAll",
      "outputs": [],
      "stateMutability": "nonpayable",
      "type": "function"
    },
    {
      "inputs": [
        {
          "internalType": "bytes4",
          "name": "interfaceId",
          "type": "bytes4"
        }
      ],
      "name": "supportsInterface",
      "outputs": [
        {
          "internalType": "bool",
          "name": "",
          "type": "bool"
        }
      ],
      "stateMutability": "view",
      "type": "function"
    },
    {
      "inputs": [],
      "name": "symbol",
      "outputs": [
        {
          "internalType": "string",
          "name": "",
          "type": "string"
        }
      ],
      "stateMutability": "view",
      "type": "function"
    },
    {
      "inputs": [
        {
          "internalType": "uint256",
          "name": "tokenId",
          "type": "uint256"
        }
      ],
      "name": "tokenURI",
      "outputs": [
        {
          "internalType": "string",
          "name": "",
          "type": "string"
        }
      ],
      "stateMutability": "view",
      "type": "function"
    },
    {
      "inputs": [
        {
          "internalType": "address",
          "name": "from",
          "type": "address"
        },
        {
          "internalType": "address",
          "name": "to",
          "type": "address"
        },
        {
          "internalType": "uint256",
          "name": "tokenId",
          "type": "uint256"
        }
      ],
      "name": "transferFrom",
      "outputs": [],
      "stateMutability": "nonpayable",
      "type": "function"
    },
    {
      "inputs": [
        {
          "internalType": "address",
          "name": "from",
          "type": "address"
        },
        {
          "internalType": "address",
          "name": "to",
          "type": "address"
        },
        {
          "internalType": "uint256",
          "name": "tokenId",
          "type": "uint256"
        }
      ],
      "name": "transferNFT",
      "outputs": [],
      "stateMutability": "nonpayable",
      "type": "function"
    },
    {
      "inputs": [
        {
          "internalType": "address",
          "name": "newOwner",
          "type": "address"
        }
      ],
      "name": "transferOwnership",
      "outputs": [],
      "stateMutability": "nonpayable",
      "type": "function"
    }
  ],
  "bytecode": "0x60806040523480156200001157600080fd5b506040518060400160405280600981526020017f43617079626172617300000000000000000000000000000000000000000000008152506040518060400160405280600481526020017f434150590000000000000000000000000000000000000000000000000000000081525081600090816200008f919062000412565b508060019081620000a1919062000412565b505050620000c4620000b8620000ca60201b60201c565b620000d260201b60201c565b620004f9565b600033905090565b6000600760009054906101000a900473ffffffffffffffffffffffffffffffffffffffff16905081600760006101000a81548173ffffffffffffffffffffffffffffffffffffffff021916908373ffffffffffffffffffffffffffffffffffffffff1602179055508173ffffffffffffffffffffffffffffffffffffffff168173ffffffffffffffffffffffffffffffffffffffff167f8be0079c531659141344cd1fd0a4f28419497f9722a3daafe3b4186f6b6457e060405160405180910390a35050565b600081519050919050565b7f4e487b7100000000000000000000000000000000000000000000000000000000600052604160045260246000fd5b7f4e487b7100000000000000000000000000000000000000000000000000000000600052602260045260246000fd5b600060028204905060018216806200021a57607f821691505b60208210810362000230576200022f620001d2565b5b50919050565b60008190508160005260206000209050919050565b60006020601f8301049050919050565b600082821b905092915050565b6000600883026200029a7fffffffffffffffffffffffffffffffffffffffffffffffffffffffffffffffff826200025b565b620002a686836200025b565b95508019841693508086168417925050509392505050565b6000819050919050565b6000819050919050565b6000620002f3620002ed620002e784620002be565b620002c8565b620002be565b9050919050565b6000819050919050565b6200030f83620002d2565b620003276200031e82620002fa565b84845462000268565b825550505050565b600090565b6200033e6200032f565b6200034b81848462000304565b505050565b5b8181101562000373576200036760008262000334565b60018101905062000351565b5050565b601f821115620003c2576200038c8162000236565b62000397846200024b565b81016020851015620003a7578190505b620003bf620003b6856200024b565b83018262000350565b50505b505050565b600082821c905092915050565b6000620003e760001984600802620003c7565b1980831691505092915050565b6000620004028383620003d4565b9150826002028217905092915050565b6200041d8262000198565b67ffffffffffffffff811115620004395762000438620001a3565b5b62000445825462000201565b6200045282828562000377565b600060209050601f8311600181146200048a576000841562000475578287015190505b620004818582620003f4565b865550620004f1565b601f1984166200049a8662000236565b60005b82811015620004c4578489015182556001820191506020850194506020810190506200049d565b86831015620004e45784890151620004e0601f891682620003d4565b8355505b6001600288020188555050505b505050505050565b612f7580620005096000396000f3fe608060405234801561001057600080fd5b50600436106101215760003560e01c8063715018a6116100ad578063b88d4fde11610071578063b88d4fde146102f2578063bf8f7e8f1461030e578063c87b56dd1461032a578063e985e9c51461035a578063f2fde38b1461038a57610121565b8063715018a6146102745780638da5cb5b1461027e57806395d89b411461029c578063a22cb465146102ba578063a5bc861d146102d657610121565b806323b872dd116100f457806323b872dd146101c057806342842e0e146101dc5780636352211e146101f857806369e9cae11461022857806370a082311461024457610121565b806301ffc9a71461012657806306fdde0314610156578063081812fc14610174578063095ea7b3146101a4575b600080fd5b610140600480360381019061013b9190611ce7565b6103a6565b60405161014d9190611d2f565b60405180910390f35b61015e610407565b60405161016b9190611dda565b60405180910390f35b61018e60048036038101906101899190611e32565b610499565b60405161019b9190611ea0565b60405180910390f35b6101be60048036038101906101b99190611ee7565b6104df565b005b6101da60048036038101906101d59190611f27565b6105f6565b005b6101f660048036038101906101f19190611f27565b610656565b005b610212600480360381019061020d9190611e32565b610676565b60405161021f9190611ea0565b60405180910390f35b610242600480360381019061023d9190611f27565b6106fc565b005b61025e60048036038101906102599190611f7a565b61078a565b60405161026b9190611fb6565b60405180910390f35b61027c610841565b005b610286610855565b6040516102939190611ea0565b60405180910390f35b6102a461087f565b6040516102b19190611dda565b60405180910390f35b6102d460048036038101906102cf9190611ffd565b610911565b005b6102f060048036038101906102eb9190612172565b610927565b005b61030c60048036038101906103079190612282565b610948565b005b61032860048036038101906103239190612172565b6109aa565b005b610344600480360381019061033f9190611e32565b6109cb565b6040516103519190611dda565b60405180910390f35b610374600480360381019061036f9190612305565b610add565b6040516103819190611d2f565b60405180910390f35b6103a4600480360381019061039f9190611f7a565b610b71565b005b6000634906490660e01b7bffffffffffffffffffffffffffffffffffffffffffffffffffffffff1916827bffffffffffffffffffffffffffffffffffffffffffffffffffffffff1916148061040057506103ff82610bf4565b5b9050919050565b60606000805461041690612374565b80601f016020809104026020016040519081016040528092919081815260200182805461044290612374565b801561048f5780601f106104645761010080835404028352916020019161048f565b820191906000526020600020905b81548152906001019060200180831161047257829003601f168201915b5050505050905090565b60006104a482610cd6565b6004600083815260200190815260200160002060009054906101000a900473ffffffffffffffffffffffffffffffffffffffff169050919050565b60006104ea82610676565b90508073ffffffffffffffffffffffffffffffffffffffff168373ffffffffffffffffffffffffffffffffffffffff160361055a576040517f08c379a000000000000000000000000000000000000000000000000000000000815260040161055190612417565b60405180910390fd5b8073ffffffffffffffffffffffffffffffffffffffff16610579610d21565b73ffffffffffffffffffffffffffffffffffffffff1614806105a857506105a7816105a2610d21565b610add565b5b6105e7576040517f08c379a00000000000000000000000000000000000000000000000000000000081526004016105de906124a9565b60405180910390fd5b6105f18383610d29565b505050565b610607610601610d21565b82610de2565b610646576040517f08c379a000000000000000000000000000000000000000000000000000000000815260040161063d9061253b565b60405180910390fd5b610651838383610e77565b505050565b61067183838360405180602001604052806000815250610948565b505050565b60008061068283611170565b9050600073ffffffffffffffffffffffffffffffffffffffff168173ffffffffffffffffffffffffffffffffffffffff16036106f3576040517f08c379a00000000000000000000000000000000000000000000000000000000081526004016106ea906125a7565b60405180910390fd5b80915050919050565b6107046111ad565b8273ffffffffffffffffffffffffffffffffffffffff1661072482610676565b73ffffffffffffffffffffffffffffffffffffffff161461077a576040517f08c379a000000000000000000000000000000000000000000000000000000000815260040161077190612613565b60405180910390fd5b610785838383610e77565b505050565b60008073ffffffffffffffffffffffffffffffffffffffff168273ffffffffffffffffffffffffffffffffffffffff16036107fa576040517f08c379a00000000000000000000000000000000000000000000000000000000081526004016107f1906126a5565b60405180910390fd5b600360008373ffffffffffffffffffffffffffffffffffffffff1673ffffffffffffffffffffffffffffffffffffffff168152602001908152602001600020549050919050565b6108496111ad565b610853600061122b565b565b6000600760009054906101000a900473ffffffffffffffffffffffffffffffffffffffff16905090565b60606001805461088e90612374565b80601f01602080910402602001604051908101604052809291908181526020018280546108ba90612374565b80156109075780601f106108dc57610100808354040283529160200191610907565b820191906000526020600020905b8154815290600101906020018083116108ea57829003601f168201915b5050505050905090565b61092361091c610d21565b83836112f1565b5050565b61092f6111ad565b610939838361145d565b610943828261167a565b505050565b610959610953610d21565b83610de2565b610998576040517f08c379a000000000000000000000000000000000000000000000000000000000815260040161098f9061253b565b60405180910390fd5b6109a48484848461171e565b50505050565b6109b26111ad565b6109bc838361145d565b6109c6828261167a565b505050565b60606109d682610cd6565b60006006600084815260200190815260200160002080546109f690612374565b80601f0160208091040260200160405190810160405280929190818152602001828054610a2290612374565b8015610a6f5780601f10610a4457610100808354040283529160200191610a6f565b820191906000526020600020905b815481529060010190602001808311610a5257829003601f168201915b505050505090506000610a8061177a565b90506000815103610a95578192505050610ad8565b600082511115610aca578082604051602001610ab2929190612701565b60405160208183030381529060405292505050610ad8565b610ad384611791565b925050505b919050565b6000600560008473ffffffffffffffffffffffffffffffffffffffff1673ffffffffffffffffffffffffffffffffffffffff16815260200190815260200160002060008373ffffffffffffffffffffffffffffffffffffffff1673ffffffffffffffffffffffffffffffffffffffff16815260200190815260200160002060009054906101000a900460ff16905092915050565b610b796111ad565b600073ffffffffffffffffffffffffffffffffffffffff168173ffffffffffffffffffffffffffffffffffffffff1603610be8576040517f08c379a0000000000000000000000000000000000000000000000000000000008152600401610bdf90612797565b60405180910390fd5b610bf18161122b565b50565b60007f80ac58cd000000000000000000000000000000000000000000000000000000007bffffffffffffffffffffffffffffffffffffffffffffffffffffffff1916827bffffffffffffffffffffffffffffffffffffffffffffffffffffffff19161480610cbf57507f5b5e139f000000000000000000000000000000000000000000000000000000007bffffffffffffffffffffffffffffffffffffffffffffffffffffffff1916827bffffffffffffffffffffffffffffffffffffffffffffffffffffffff1916145b80610ccf5750610cce826117f9565b5b9050919050565b610cdf81611863565b610d1e576040517f08c379a0000000000000000000000000000000000000000000000000000000008152600401610d15906125a7565b60405180910390fd5b50565b600033905090565b816004600083815260200190815260200160002060006101000a81548173ffffffffffffffffffffffffffffffffffffffff021916908373ffffffffffffffffffffffffffffffffffffffff160217905550808273ffffffffffffffffffffffffffffffffffffffff16610d9c83610676565b73ffffffffffffffffffffffffffffffffffffffff167f8c5be1e5ebec7d5bd14f71427d1e84f3dd0314c0f7b2291e5b200ac8c7c3b92560405160405180910390a45050565b600080610dee83610676565b90508073ffffffffffffffffffffffffffffffffffffffff168473ffffffffffffffffffffffffffffffffffffffff161480610e305750610e2f8185610add565b5b80610e6e57508373ffffffffffffffffffffffffffffffffffffffff16610e5684610499565b73ffffffffffffffffffffffffffffffffffffffff16145b91505092915050565b8273ffffffffffffffffffffffffffffffffffffffff16610e9782610676565b73ffffffffffffffffffffffffffffffffffffffff1614610eed576040517f08c379a0000000000000000000000000000000000000000000000000000000008152600401610ee490612829565b60405180910390fd5b600073ffffffffffffffffffffffffffffffffffffffff168273ffffffffffffffffffffffffffffffffffffffff1603610f5c576040517f08c379a0000000000000000000000000000000000000000000000000000000008152600401610f53906128bb565b60405180910390fd5b610f6983838360016118a4565b8273ffffffffffffffffffffffffffffffffffffffff16610f8982610676565b73ffffffffffffffffffffffffffffffffffffffff1614610fdf576040517f08c379a0000000000000000000000000000000000000000000000000000000008152600401610fd690612829565b60405180910390fd5b6004600082815260200190815260200160002060006101000a81549073ffffffffffffffffffffffffffffffffffffffff02191690556001600360008573ffffffffffffffffffffffffffffffffffffffff1673ffffffffffffffffffffffffffffffffffffffff168152602001908152602001600020600082825403925050819055506001600360008473ffffffffffffffffffffffffffffffffffffffff1673ffffffffffffffffffffffffffffffffffffffff16815260200190815260200160002060008282540192505081905550816002600083815260200190815260200160002060006101000a81548173ffffffffffffffffffffffffffffffffffffffff021916908373ffffffffffffffffffffffffffffffffffffffff160217905550808273ffffffffffffffffffffffffffffffffffffffff168473ffffffffffffffffffffffffffffffffffffffff167fddf252ad1be2c89b69c2b068fc378daa952ba7f163c4a11628f55a4df523b3ef60405160405180910390a461116b83838360016118aa565b505050565b60006002600083815260200190815260200160002060009054906101000a900473ffffffffffffffffffffffffffffffffffffffff169050919050565b6111b5610d21565b73ffffffffffffffffffffffffffffffffffffffff166111d3610855565b73ffffffffffffffffffffffffffffffffffffffff1614611229576040517f08c379a000000000000000000000000000000000000000000000000000000000815260040161122090612927565b60405180910390fd5b565b6000600760009054906101000a900473ffffffffffffffffffffffffffffffffffffffff16905081600760006101000a81548173ffffffffffffffffffffffffffffffffffffffff021916908373ffffffffffffffffffffffffffffffffffffffff1602179055508173ffffffffffffffffffffffffffffffffffffffff168173ffffffffffffffffffffffffffffffffffffffff167f8be0079c531659141344cd1fd0a4f28419497f9722a3daafe3b4186f6b6457e060405160405180910390a35050565b8173ffffffffffffffffffffffffffffffffffffffff168373ffffffffffffffffffffffffffffffffffffffff160361135f576040517f08c379a000000000000000000000000000000000000000000000000000000000815260040161135690612993565b60405180910390fd5b80600560008573ffffffffffffffffffffffffffffffffffffffff1673ffffffffffffffffffffffffffffffffffffffff16815260200190815260200160002060008473ffffffffffffffffffffffffffffffffffffffff1673ffffffffffffffffffffffffffffffffffffffff16815260200190815260200160002060006101000a81548160ff0219169083151502179055508173ffffffffffffffffffffffffffffffffffffffff168373ffffffffffffffffffffffffffffffffffffffff167f17307eab39ab6107e8899845ad3d59bd9653f200f220920489ca2b5937696c31836040516114509190611d2f565b60405180910390a3505050565b600073ffffffffffffffffffffffffffffffffffffffff168273ffffffffffffffffffffffffffffffffffffffff16036114cc576040517f08c379a00000000000000000000000000000000000000000000000000000000081526004016114c3906129ff565b60405180910390fd5b6114d581611863565b15611515576040517f08c379a000000000000000000000000000000000000000000000000000000000815260040161150c90612a6b565b60405180910390fd5b6115236000838360016118a4565b61152c81611863565b1561156c576040517f08c379a000000000000000000000000000000000000000000000000000000000815260040161156390612a6b565b60405180910390fd5b6001600360008473ffffffffffffffffffffffffffffffffffffffff1673ffffffffffffffffffffffffffffffffffffffff16815260200190815260200160002060008282540192505081905550816002600083815260200190815260200160002060006101000a81548173ffffffffffffffffffffffffffffffffffffffff021916908373ffffffffffffffffffffffffffffffffffffffff160217905550808273ffffffffffffffffffffffffffffffffffffffff16600073ffffffffffffffffffffffffffffffffffffffff167fddf252ad1be2c89b69c2b068fc378daa952ba7f163c4a11628f55a4df523b3ef60405160405180910390a46116766000838360016118aa565b5050565b61168382611863565b6116c2576040517f08c379a00000000000000000000000000000000000000000000000000000000081526004016116b990612afd565b60405180910390fd5b806006600084815260200190815260200160002090816116e29190612cc9565b507ff8e1a15aba9398e019f0b49df1a4fde98ee17ae345cb5f6b5e2c27f5033e8ce7826040516117129190611fb6565b60405180910390a15050565b611729848484610e77565b611735848484846118b0565b611774576040517f08c379a000000000000000000000000000000000000000000000000000000000815260040161176b90612e0d565b60405180910390fd5b50505050565b606060405180602001604052806000815250905090565b606061179c82610cd6565b60006117a661177a565b905060008151116117c657604051806020016040528060008152506117f1565b806117d084611a37565b6040516020016117e1929190612701565b6040516020818303038152906040525b915050919050565b60007f01ffc9a7000000000000000000000000000000000000000000000000000000007bffffffffffffffffffffffffffffffffffffffffffffffffffffffff1916827bffffffffffffffffffffffffffffffffffffffffffffffffffffffff1916149050919050565b60008073ffffffffffffffffffffffffffffffffffffffff1661188583611170565b73ffffffffffffffffffffffffffffffffffffffff1614159050919050565b50505050565b50505050565b60006118d18473ffffffffffffffffffffffffffffffffffffffff16611b05565b15611a2a578373ffffffffffffffffffffffffffffffffffffffff1663150b7a026118fa610d21565b8786866040518563ffffffff1660e01b815260040161191c9493929190612e82565b6020604051808303816000875af192505050801561195857506040513d601f19601f820116820180604052508101906119559190612ee3565b60015b6119da573d8060008114611988576040519150601f19603f3d011682016040523d82523d6000602084013e61198d565b606091505b5060008151036119d2576040517f08c379a00000000000000000000000000000000000000000000000000000000081526004016119c990612e0d565b60405180910390fd5b805181602001fd5b63150b7a0260e01b7bffffffffffffffffffffffffffffffffffffffffffffffffffffffff1916817bffffffffffffffffffffffffffffffffffffffffffffffffffffffff191614915050611a2f565b600190505b949350505050565b606060006001611a4684611b28565b01905060008167ffffffffffffffff811115611a6557611a64612047565b5b6040519080825280601f01601f191660200182016040528015611a975781602001600182028036833780820191505090505b509050600082602001820190505b600115611afa578080600190039150507f3031323334353637383961626364656600000000000000000000000000000000600a86061a8153600a8581611aee57611aed612f10565b5b04945060008503611aa5575b819350505050919050565b6000808273ffffffffffffffffffffffffffffffffffffffff163b119050919050565b600080600090507a184f03e93ff9f4daa797ed6e38ed64bf6a1f0100000000000000008310611b86577a184f03e93ff9f4daa797ed6e38ed64bf6a1f0100000000000000008381611b7c57611b7b612f10565b5b0492506040810190505b6d04ee2d6d415b85acef81000000008310611bc3576d04ee2d6d415b85acef81000000008381611bb957611bb8612f10565b5b0492506020810190505b662386f26fc100008310611bf257662386f26fc100008381611be857611be7612f10565b5b0492506010810190505b6305f5e1008310611c1b576305f5e1008381611c1157611c10612f10565b5b0492506008810190505b6127108310611c40576127108381611c3657611c35612f10565b5b0492506004810190505b60648310611c635760648381611c5957611c58612f10565b5b0492506002810190505b600a8310611c72576001810190505b80915050919050565b6000604051905090565b600080fd5b600080fd5b60007fffffffff0000000000000000000000000000000000000000000000000000000082169050919050565b611cc481611c8f565b8114611ccf57600080fd5b50565b600081359050611ce181611cbb565b92915050565b600060208284031215611cfd57611cfc611c85565b5b6000611d0b84828501611cd2565b91505092915050565b60008115159050919050565b611d2981611d14565b82525050565b6000602082019050611d446000830184611d20565b92915050565b600081519050919050565b600082825260208201905092915050565b60005b83811015611d84578082015181840152602081019050611d69565b60008484015250505050565b6000601f19601f8301169050919050565b6000611dac82611d4a565b611db68185611d55565b9350611dc6818560208601611d66565b611dcf81611d90565b840191505092915050565b60006020820190508181036000830152611df48184611da1565b905092915050565b6000819050919050565b611e0f81611dfc565b8114611e1a57600080fd5b50565b600081359050611e2c81611e06565b92915050565b600060208284031215611e4857611e47611c85565b5b6000611e5684828501611e1d565b91505092915050565b600073ffffffffffffffffffffffffffffffffffffffff82169050919050565b6000611e8a82611e5f565b9050919050565b611e9a81611e7f565b82525050565b6000602082019050611eb56000830184611e91565b92915050565b611ec481611e7f565b8114611ecf57600080fd5b50565b600081359050611ee181611ebb565b92915050565b60008060408385031215611efe57611efd611c85565b5b6000611f0c85828601611ed2565b9250506020611f1d85828601611e1d565b9150509250929050565b600080600060608486031215611f4057611f3f611c85565b5b6000611f4e86828701611ed2565b9350506020611f5f86828701611ed2565b9250506040611f7086828701611e1d565b9150509250925092565b600060208284031215611f9057611f8f611c85565b5b6000611f9e84828501611ed2565b91505092915050565b611fb081611dfc565b82525050565b6000602082019050611fcb6000830184611fa7565b92915050565b611fda81611d14565b8114611fe557600080fd5b50565b600081359050611ff781611fd1565b92915050565b6000806040838503121561201457612013611c85565b5b600061202285828601611ed2565b925050602061203385828601611fe8565b9150509250929050565b600080fd5b600080fd5b7f4e487b7100000000000000000000000000000000000000000000000000000000600052604160045260246000fd5b61207f82611d90565b810181811067ffffffffffffffff8211171561209e5761209d612047565b5b80604052505050565b60006120b1611c7b565b90506120bd8282612076565b919050565b600067ffffffffffffffff8211156120dd576120dc612047565b5b6120e682611d90565b9050602081019050919050565b82818337600083830152505050565b6000612115612110846120c2565b6120a7565b90508281526020810184848401111561213157612130612042565b5b61213c8482856120f3565b509392505050565b600082601f8301126121595761215861203d565b5b8135612169848260208601612102565b91505092915050565b60008060006060848603121561218b5761218a611c85565b5b600061219986828701611ed2565b93505060206121aa86828701611e1d565b925050604084013567ffffffffffffffff8111156121cb576121ca611c8a565b5b6121d786828701612144565b9150509250925092565b600067ffffffffffffffff8211156121fc576121fb612047565b5b61220582611d90565b9050602081019050919050565b6000612225612220846121e1565b6120a7565b90508281526020810184848401111561224157612240612042565b5b61224c8482856120f3565b509392505050565b600082601f8301126122695761226861203d565b5b8135612279848260208601612212565b91505092915050565b6000806000806080858703121561229c5761229b611c85565b5b60006122aa87828801611ed2565b94505060206122bb87828801611ed2565b93505060406122cc87828801611e1d565b925050606085013567ffffffffffffffff8111156122ed576122ec611c8a565b5b6122f987828801612254565b91505092959194509250565b6000806040838503121561231c5761231b611c85565b5b600061232a85828601611ed2565b925050602061233b85828601611ed2565b9150509250929050565b7f4e487b7100000000000000000000000000000000000000000000000000000000600052602260045260246000fd5b6000600282049050600182168061238c57607f821691505b60208210810361239f5761239e612345565b5b50919050565b7f4552433732313a20617070726f76616c20746f2063757272656e74206f776e6560008201527f7200000000000000000000000000000000000000000000000000000000000000602082015250565b6000612401602183611d55565b915061240c826123a5565b604082019050919050565b60006020820190508181036000830152612430816123f4565b9050919050565b7f4552433732313a20617070726f76652063616c6c6572206973206e6f7420746f60008201527f6b656e206f776e6572206f7220617070726f76656420666f7220616c6c000000602082015250565b6000612493603d83611d55565b915061249e82612437565b604082019050919050565b600060208201905081810360008301526124c281612486565b9050919050565b7f4552433732313a2063616c6c6572206973206e6f7420746f6b656e206f776e6560008201527f72206f7220617070726f76656400000000000000000000000000000000000000602082015250565b6000612525602d83611d55565b9150612530826124c9565b604082019050919050565b6000602082019050818103600083015261255481612518565b9050919050565b7f4552433732313a20696e76616c696420746f6b656e2049440000000000000000600082015250565b6000612591601883611d55565b915061259c8261255b565b602082019050919050565b600060208201905081810360008301526125c081612584565b9050919050565b7f4e6f7420746865206f776e6572206f6620746865204e46540000000000000000600082015250565b60006125fd601883611d55565b9150612608826125c7565b602082019050919050565b6000602082019050818103600083015261262c816125f0565b9050919050565b7f4552433732313a2061646472657373207a65726f206973206e6f74206120766160008201527f6c6964206f776e65720000000000000000000000000000000000000000000000602082015250565b600061268f602983611d55565b915061269a82612633565b604082019050919050565b600060208201905081810360008301526126be81612682565b9050919050565b600081905092915050565b60006126db82611d4a565b6126e581856126c5565b93506126f5818560208601611d66565b80840191505092915050565b600061270d82856126d0565b915061271982846126d0565b91508190509392505050565b7f4f776e61626c653a206e6577206f776e657220697320746865207a65726f206160008201527f6464726573730000000000000000000000000000000000000000000000000000602082015250565b6000612781602683611d55565b915061278c82612725565b604082019050919050565b600060208201905081810360008301526127b081612774565b9050919050565b7f4552433732313a207472616e736665722066726f6d20696e636f72726563742060008201527f6f776e6572000000000000000000000000000000000000000000000000000000602082015250565b6000612813602583611d55565b915061281e826127b7565b604082019050919050565b6000602082019050818103600083015261284281612806565b9050919050565b7f4552433732313a207472616e7366657220746f20746865207a65726f2061646460008201527f7265737300000000000000000000000000000000000000000000000000000000602082015250565b60006128a5602483611d55565b91506128b082612849565b604082019050919050565b600060208201905081810360008301526128d481612898565b9050919050565b7f4f776e61626c653a2063616c6c6572206973206e6f7420746865206f776e6572600082015250565b6000612911602083611d55565b915061291c826128db565b602082019050919050565b6000602082019050818103600083015261294081612904565b9050919050565b7f4552433732313a20617070726f766520746f2063616c6c657200000000000000600082015250565b600061297d601983611d55565b915061298882612947565b602082019050919050565b600060208201905081810360008301526129ac81612970565b9050919050565b7f4552433732313a206d696e7420746f20746865207a65726f2061646472657373600082015250565b60006129e9602083611d55565b91506129f4826129b3565b602082019050919050565b60006020820190508181036000830152612a18816129dc565b9050919050565b7f4552433732313a20746f6b656e20616c7265616479206d696e74656400000000600082015250565b6000612a55601c83611d55565b9150612a6082612a1f565b602082019050919050565b60006020820190508181036000830152612a8481612a48565b9050919050565b7f45524337323155524953746f726167653a2055524920736574206f66206e6f6e60008201527f6578697374656e7420746f6b656e000000000000000000000000000000000000602082015250565b6000612ae7602e83611d55565b9150612af282612a8b565b604082019050919050565b60006020820190508181036000830152612b1681612ada565b9050919050565b60008190508160005260206000209050919050565b60006020601f8301049050919050565b600082821b905092915050565b600060088302612b7f7fffffffffffffffffffffffffffffffffffffffffffffffffffffffffffffffff82612b42565b612b898683612b42565b95508019841693508086168417925050509392505050565b6000819050919050565b6000612bc6612bc1612bbc84611dfc565b612ba1565b611dfc565b9050919050565b6000819050919050565b612be083612bab565b612bf4612bec82612bcd565b848454612b4f565b825550505050565b600090565b612c09612bfc565b612c14818484612bd7565b505050565b5b81811015612c3857612c2d600082612c01565b600181019050612c1a565b5050565b601f821115612c7d57612c4e81612b1d565b612c5784612b32565b81016020851015612c66578190505b612c7a612c7285612b32565b830182612c19565b50505b505050565b600082821c905092915050565b6000612ca060001984600802612c82565b1980831691505092915050565b6000612cb98383612c8f565b9150826002028217905092915050565b612cd282611d4a565b67ffffffffffffffff811115612ceb57612cea612047565b5b612cf58254612374565b612d00828285612c3c565b600060209050601f831160018114612d335760008415612d21578287015190505b612d2b8582612cad565b865550612d93565b601f198416612d4186612b1d565b60005b82811015612d6957848901518255600182019150602085019450602081019050612d44565b86831015612d865784890151612d82601f891682612c8f565b8355505b6001600288020188555050505b505050505050565b7f4552433732313a207472616e7366657220746f206e6f6e20455243373231526560008201527f63656976657220696d706c656d656e7465720000000000000000000000000000602082015250565b6000612df7603283611d55565b9150612e0282612d9b565b604082019050919050565b60006020820190508181036000830152612e2681612dea565b9050919050565b600081519050919050565b600082825260208201905092915050565b6000612e5482612e2d565b612e5e8185612e38565b9350612e6e818560208601611d66565b612e7781611d90565b840191505092915050565b6000608082019050612e976000830187611e91565b612ea46020830186611e91565b612eb16040830185611fa7565b8181036060830152612ec38184612e49565b905095945050505050565b600081519050612edd81611cbb565b92915050565b600060208284031215612ef957612ef8611c85565b5b6000612f0784828501612ece565b91505092915050565b7f4e487b7100000000000000000000000000000000000000000000000000000000600052601260045260246000fdfea26469706673582212203f216c0367e866980f24727442641ac9683bcfe918757abeb9e6770e4e601d7864736f6c63430008130033",
  "linkReferences": {},
  "deployedLinkReferences": {}
}