{
  "_format": "hh-sol-artifact-1",
  "contractName": "AuctionContract",
  "sourceName": "contracts/AuctionContract.sol",
  "abi": [
    {
      "inputs": [
        {
          "internalType": "uint256",
          "name": "",
          "type": "uint256"
        }
      ],
      "name": "auctions",
      "outputs": [
        {
          "internalType": "uint256",
          "name": "tokenId",
          "type": "uint256"
        },
        {
          "internalType": "address",
          "name": "seller",
          "type": "address"
        },
        {
          "internalType": "uint256",
          "name": "startPrice",
          "type": "uint256"
        },
        {
          "internalType": "uint256",
          "name": "endPrice",
          "type": "uint256"
        },
        {
          "internalType": "uint256",
          "name": "duration",
          "type": "uint256"
        },
        {
          "internalType": "uint256",
          "name": "startTime",
          "type": "uint256"
        }
      ],
      "stateMutability": "view",
      "type": "function"
    },
    {
      "inputs": [
        {
          "internalType": "uint256",
          "name": "tokenId",
          "type": "uint256"
        }
      ],
      "name": "bid",
      "outputs": [],
      "stateMutability": "payable",
      "type": "function"
    },
    {
      "inputs": [
        {
          "internalType": "uint256",
          "name": "tokenId",
          "type": "uint256"
        },
        {
          "internalType": "uint256",
          "name": "startPrice",
          "type": "uint256"
        },
        {
          "internalType": "uint256",
          "name": "endPrice",
          "type": "uint256"
        },
        {
          "internalType": "uint256",
          "name": "duration",
          "type": "uint256"
        }
      ],
      "name": "createAuction",
      "outputs": [],
      "stateMutability": "nonpayable",
      "type": "function"
    }
  ],
  "bytecode": "0x608060405234801561001057600080fd5b506103c3806100206000396000f3fe6080604052600436106100345760003560e01c8063431f21da14610039578063454a2ab314610062578063571a26a01461007e575b600080fd5b34801561004557600080fd5b50610060600480360381019061005b9190610248565b6100c0565b005b61007c600480360381019061007791906102af565b610197565b005b34801561008a57600080fd5b506100a560048036038101906100a091906102af565b6101b1565b6040516100b79695949392919061032c565b60405180910390f35b6040518060c001604052808581526020013373ffffffffffffffffffffffffffffffffffffffff168152602001848152602001838152602001828152602001428152506000808681526020019081526020016000206000820151816000015560208201518160010160006101000a81548173ffffffffffffffffffffffffffffffffffffffff021916908373ffffffffffffffffffffffffffffffffffffffff16021790555060408201518160020155606082015181600301556080820151816004015560a0820151816005015590505050505050565b600080600083815260200190815260200160002090505050565b60006020528060005260406000206000915090508060000154908060010160009054906101000a900473ffffffffffffffffffffffffffffffffffffffff16908060020154908060030154908060040154908060050154905086565b600080fd5b6000819050919050565b61022581610212565b811461023057600080fd5b50565b6000813590506102428161021c565b92915050565b600080600080608085870312156102625761026161020d565b5b600061027087828801610233565b945050602061028187828801610233565b935050604061029287828801610233565b92505060606102a387828801610233565b91505092959194509250565b6000602082840312156102c5576102c461020d565b5b60006102d384828501610233565b91505092915050565b6102e581610212565b82525050565b600073ffffffffffffffffffffffffffffffffffffffff82169050919050565b6000610316826102eb565b9050919050565b6103268161030b565b82525050565b600060c08201905061034160008301896102dc565b61034e602083018861031d565b61035b60408301876102dc565b61036860608301866102dc565b61037560808301856102dc565b61038260a08301846102dc565b97965050505050505056fea26469706673582212207270dde07fd11ca35d95c50a22164f2edf682db8b1daf4bf5f37f68d73e842d464736f6c63430008130033",
  "linkReferences": {},
  "deployedLinkReferences": {}
}